:100000000C9468000C9490000C9490000C94900058
:100010000C9490000C9490000C9490000C94900020
:100020000C9490000C9490000C9490000C94900010
:100030000C9490000C9490000C9490000C94900000
:100040000C9426050C9490000C94EF010C94C901BB
:100050000C9490000C9490000C9490000C949000E0
:100060000C9490000C949000005EBCE2613FDD8334
:10007000C29C7E20A3FD1F41009D23BE46DB65F888
:100080008C11AF32CA57E974000000002500280027
:100090002B0000000000240027002A0000000000C0
:1000A00023002600290004040404040404040202BA
:1000B00002020202030303030303010204081020E7
:1000C0004080010204081020010204081020860963
:1000D00011241FBECFEFD8E0DEBFCDBF11E0A0E0FE
:1000E000B1E0EEECFAE102C005900D92AE3FB1072F
:1000F000D9F722E0AEEFB1E001C01D92AE3CB207ED
:10010000E1F710E0C8E6D0E004C02197FE010E94AC
:100110006F0AC736D107C9F70E9470050C94650DA8
:100120000C940000CF92DF92EF92FF920F931F93F7
:10013000CF93DF936C017A018B01C0E0D0E0CE1544
:10014000DF0581F0D8016D918D01D601ED91FC9113
:100150000190F081E02DC6010995892B11F02196BF
:10016000EECF7E01C701DF91CF911F910F91FF90DC
:10017000EF90DF90CF900895089580E090E008958B
:10018000FC01538D448D252F30E0842F90E0821B9D
:10019000930B541710F0CF96089501970895FC0122
:1001A000918D828D981761F0828DDF01A80FB11DAE
:1001B0005D968C91928D9F5F9F73928F90E00895D2
:1001C0008FEF9FEF0895FC01918D828D981731F08C
:1001D000828DE80FF11D858D90E008958FEF9FEFE0
:1001E0000895FC01918D228D892F90E0805C9F4FB6
:1001F000821B91098F739927089586E092E00E94EF
:10020000F10021E0892B09F420E0822F0895FC0100
:10021000848DDF01A80FB11DA35ABF4F2C91848D8F
:1002200090E001968F739927848FA689B7892C93C4
:10023000A089B1898C91837080648C93938D848D17
:10024000981306C00288F389E02D80818F7D80831A
:100250000895EF92FF920F931F93CF93DF93EC01DA
:1002600081E0888F9B8D8C8D981305C0E889F98972
:10027000808185FD26C0F62E0B8D10E00F5F1F4F8D
:100280000F731127E02E8C8DE8120CC00FB607FCFF
:10029000FACFE889F989808185FFF5CFCE010E94E8
:1002A0000701F1CF8B8DFE01E80FF11DE35AFF4FDF
:1002B000F0829FB7F8940B8FEA89FB898081806276
:1002C0000AC09FB7F894EE89FF896083E889F989AD
:1002D00080818370806480839FBF81E090E0DF91A4
:1002E000CF911F910F91FF90EF900895CF93DF93DF
:1002F000EC01888D8823C9F0EA89FB89808185FD1E
:1003000005C0A889B9898C9186FD0FC00FB607FC7E
:10031000F5CF808185FFF2CFA889B9898C9185FFBF
:10032000EDCFCE010E940701E7CFDF91CF91089575
:1003300080E090E0892B29F00E94FD0081110C944F
:1003400000000895EF92FF920F931F93CF93DF93D6
:10035000EC018C01085F1F4F7E018881803120F401
:100360008DE991E00E94B5042196F701608170E06B
:1003700080E090E040E10E947404C017D10761F76B
:10038000DF91CF911F910F91FF90EF9008950E9400
:10039000600D1F920F920FB60F9211242F933F936F
:1003A0004F935F936F937F938F939F93AF93BF937D
:1003B000EF93FF9386E092E00E940701FF91EF9197
:1003C000BF91AF919F918F917F916F915F914F916D
:1003D0003F912F910F900FBE0F901F9018951F9275
:1003E0000F920FB60F9211242F938F939F93EF9339
:1003F000FF93E0911602F09117028081E0911C02B8
:10040000F0911D0282FD12C0908180911F028F5FCA
:100410008F7320912002821751F0E0911F02F0E0CB
:10042000EA5FFD4F958F80931F0201C08081FF918D
:10043000EF919F918F912F910F900FBE0F901F9072
:100440001895DC0180E0615098F02D91982F92274B
:10045000E92FEF70F0E0E859FF4F249192959F70DB
:10046000E92FF0E0E858FF4FE491822F8E27EBCF81
:100470000895FC0190810180F281E02DF894818142
:10048000892B81832281892F809528232283A7E0CD
:10049000B0E01197F1F7218182238183A3E2B0E0DC
:1004A0001197F1F780817894EFECF0E03197F1F754
:1004B000982381E009F480E00895FC019081018097
:1004C000F281E02D892F809560FF12C0F89422817F
:1004D000822382838181892B8183A3E2B0E01197FB
:1004E000F1F78281982B9283789487ED90E011C088
:1004F000F8942281822382838181892B8183AFEFCB
:10050000B0E01197F1F78281982B928378948FE075
:1005100090E00197F1F70895DF92EF92FF920F9329
:100520001F93CF93DF93EC01D62EE42E08E010E06A
:10053000FF24F39461E08D2D8F2109F460E0CE015A
:100540000E945D02FF0C01501109A1F7E11010C0DB
:10055000F894E981FA81918188818095892381834A
:10056000E981FA81928188818095892382837894B8
:10057000DF91CF911F910F91FF90EF90DF90089541
:10058000EF92FF920F931F93CF93DF938C017B0128
:1005900040E065E50E948C02E70188E0E80EF11C6E
:1005A000699140E0C8010E948C02CE15DF05C1F7B9
:1005B000DF91CF911F910F91FF90EF900895DC0193
:1005C0002C911196ED91FC911297F8948181922FC4
:1005D00090958923818378948DE743E050E08150A2
:1005E00021F1DA011197F1F730813223C1F3F89448
:1005F0008281892382838181822B81837894ABE7F6
:10060000B7E01197F1F7F89481819823918383E102
:1006100091E00197F1F78081282381E009F080E0E3
:100620007894E3E6F6E03197F1F708953FB7F89450
:100630008091B8029091B902A091BA02B091BB0228
:1006400026B5A89B05C02F3F19F00196A11DB11D2D
:100650003FBFBA2FA92F982F8827820F911DA11D68
:10066000B11DBC01CD0142E0660F771F881F991FA5
:100670004A95D1F708958F929F92AF92BF92CF92F1
:10068000DF92EF92FF920F931F93CF93DF938C0132
:10069000EB018091A9029091AA020E94DF028823B7
:1006A00009F43DC0B8018091A9029091AA020E946C
:1006B000C00240E06EEB8091A9029091AA020E94D4
:1006C0008C028E015E0189E0A80EB11C8090A90207
:1006D0009090AA0288E0C82ED12CF12CEE24E3944D
:1006E000C4010E9439028111FE28EE0CE1E0CE1A0D
:1006F000D108B1F7F801F1928F01EA15FB0531F746
:100700008091A9029091AA020E94DF02813039F4FF
:1007100068E0CE010E94210291E02885281390E034
:10072000892FDF91CF911F910F91FF90EF90DF9074
:10073000CF90BF90AF909F908F900895CF93DF930D
:10074000CDB7DEB729970FB6F894DEBF0FBECDBF89
:10075000FC0120812031D1F0BE016F5F7F4F0E94EC
:100760003B03882389F08D818F3361F020F48F3132
:1007700059F489E00CC08F3519F08F3739F004C077
:100780008BE005C08AE003C080E001C08CE02996C0
:100790000FB6F894DEBF0FBECDBFDF91CF910895A5
:1007A000BF92CF92DF92EF92FF920F931F93CF935E
:1007B000DF93EC016B018D85811105C0CE010E9494
:1007C000DF02811105C01B861D861C8680E060C08B
:1007D00040E060EFCE010E948C0201E0E12CB12CE0
:1007E00011E0CE010E943902F82ECE010E9439029A
:1007F00091E0F91203C08130B1F434C02E2D30E005
:10080000F8121BC08B85181738F4FE01E20FF31F96
:100810008381802341F402C0811729F0F12C193023
:1008200058F41C8709C0FE01EE0DF11D8381802B59
:100830008383FF24F39409C0B12EFE01E20FF31F5E
:100840009381802F8095892383836F2DCE010E9411
:100850005D021F5F000F11F4E39401E087E08E1545
:1008600008F0BFCF113408F4AECFBB86B11002C080
:1008700081E08D878B81882309F4A5CFDE01139653
:10088000F6012B968D918193CA17DB07D9F781E08A
:10089000DF91CF911F910F91FF90EF90DF90CF905C
:1008A000BF900895009769F0FC0101900020E9F7DE
:1008B0003197AF01481B590BBC0186E092E00C94C4
:1008C000920080E090E008958AEF91E00C94520449
:1008D000CF93DF930E945204EC010E9464048C0FBA
:1008E0009D1FDF91CF9108958F929F92AF92BF92FB
:1008F0000F931F93CF93DF93CDB7DEB7A1970FB6BA
:10090000F894DEBF0FBECDBF19A2423008F44AE012
:100910008E010F5D1F4F842E912CA12CB12CA501AF
:1009200094010E94390AE62FB901CA010150110948
:10093000EA3014F4E05D01C0E95CD801EC93232BAC
:10094000242B252B61F7C8010E945204A1960FB6F3
:10095000F894DEBF0FBECDBFDF91CF911F910F91F5
:10096000BF90AF909F908F9008950C945204FF9287
:100970000F931F93CF93DF938C01F62EE091A90282
:10098000F091AA02138615861486DF011B96339612
:100990001E92EA17FB07E1F7C0E0B8018091A902B7
:1009A0009091AA020E94D003D82F882369F0FC12EC
:1009B00008C067E0C8010E942102F80197818917E9
:1009C00021F0CF5FFC1648F7D0E08D2FDF91CF915B
:1009D0001F910F91FF9008958F929F92AF92BF92B7
:1009E000CF92DF92EF92FF926B017C010E9416037F
:1009F0004B015C01C114D104E104F104F1F00E9447
:100A00001603DC01CB0188199909AA09BB09883EA4
:100A10009340A105B10570F321E0C21AD108E108A5
:100A2000F10888EE880E83E0981EA11CB11CC11449
:100A3000D104E104F10419F7DDCFFF90EF90DF90CE
:100A4000CF90BF90AF909F908F9008951F920F927C
:100A50000FB60F9211242F933F938F939F93AF93D1
:100A6000BF938091020290910302A0910402B09181
:100A700005023091B70223E0230F2D3720F40196B1
:100A8000A11DB11D05C026E8230F0296A11DB11DB1
:100A90002093B7028093020290930302A093040272
:100AA000B09305028091B8029091B902A091BA0268
:100AB000B091BB020196A11DB11D8093B802909325
:100AC000B902A093BA02B093BB02BF91AF919F91BC
:100AD0008F913F912F910F900FBE0F901F901895FF
:100AE000CF93DF93CDB7DEB761970FB6F894DEBF33
:100AF0000FBECDBF789484B5826084BD84B581601B
:100B000084BD85B5826085BD85B5816085BD8091D8
:100B10006E00816080936E00109281008091810050
:100B20008260809381008091810081608093810048
:100B3000809180008160809380008091B10084600A
:100B40008093B1008091B00081608093B00080916B
:100B50007A00846080937A0080917A00826080932A
:100B60007A0080917A00816080937A0080917A0087
:100B7000806880937A001092C100EFEBF0E024913E
:100B8000EBEAF0E08491882399F090E0880F991FB8
:100B9000FC01EE56FF4FA591B491FC01E857FF4FC1
:100BA000859194918FB7F894EC91E22BEC938FBFE1
:100BB000E0911602F091170282E08083E091120228
:100BC000F09113021082E0911402F09115028FEC63
:100BD000808310921E02E0911A02F0911B0286E0BF
:100BE0008083E0911802F0911902808180618083F6
:100BF000E0911802F0911902808188608083E09171
:100C00001802F0911902808180688083E0911802B7
:100C1000F091190280818F7D80838EE191E00E94A6
:100C20006804E091A902F091AA0213861586148641
:100C3000DF011B9633961E92AE17BF07E1F71092A5
:100C4000A7021092A80211E0BE016F5F7F4F809152
:100C5000A9029091AA020E94D003882309F45CC0E3
:100C600067E0CE0101960E94210298858913ECCF9E
:100C70008091A302811127C08091A9029091AA02BC
:100C80000E94DF02BE016F5F7F4F8091A9029091A9
:100C9000AA020E94C00240E064EB8091A9029091F8
:100CA000AA020E948C028091A9029091AA020E943D
:100CB0003902082F8091A9029091AA020E94DF02B6
:100CC000002309F41AC30091A402CE0101960E94E8
:100CD0009E03801718F48091A40204C0CE010196EF
:100CE0000E949E038093A4028091A7028F5F80934D
:100CF000A7028981883209F403C338F4803109F4EA
:100D0000FFC2823209F0A0CFFBC28B3309F4F8C2D4
:100D1000823409F099CFF4C2FFE1CF2EA9E0DA2E98
:100D20008091A70290E02091000230910102821789
:100D3000930709F453C1909301028093000289E460
:100D400091E00E94B5046091A702862F90E09093F5
:100D500001028093000270E080E090E04AE00E948F
:100D600074040E94640480E691E00E94B5048091BE
:100D7000A302882319F084E791E002C087E791E09D
:100D80000E9468048091000290910102813E2FE050
:100D9000920730F4E3E0880F991FEA95E1F702C06B
:100DA0008FEF9FEF0E943F0C9093FF018093FE0115
:100DB000E12CF12C00E010E0809100029091010202
:100DC000081719072CF0E12CF12CA12CB12C66C0CE
:100DD0008091FE019091FF01602F8E0D9F1D0E945A
:100DE000B704811104C08BE791E00E9468040F5F93
:100DF0001F4F48E0E40EF11CDFCF8FE991E00E9425
:100E0000B5044090000250900102052C000C6608C9
:100E1000770877FE4CC06DE286E092E00E942901DF
:100E200066277727CB0164197509860997094AE077
:100E30000E9474048AED91E00E94B5048091FE0145
:100E40009091FF018E0D9F1D0E94A2010E946404DB
:100E50000091FE011091FF010E0D1F1DC8010E949F
:100E60009E03893041F587EA91E00E94B5048091A4
:100E7000FE019091FF018E0D9F1D0E949E03682F21
:100E800070E080E090E04AE00E9474040E946404F4
:100E9000FFEFAF1ABF0A28E0E20EF11C80910002BA
:100EA00090910102A816B9060CF4A7CF97C04AE0AA
:100EB000C301B201BDCFBE016F5F7F4FC8010E9469
:100EC0003B03882381F2F8018081803161F2CD8279
:100ED0008091A9029091AA020E94DF02B80180913C
:100EE000A9029091AA020E94C00240E06EE48091A3
:100EF000A9029091AA020E948C0240E06B8180912D
:100F0000A9029091AA020E948C0240E06C8180911B
:100F1000A9029091AA020E948C02F801808180317E
:100F200041F040E06D818091A9029091AA020E9457
:100F30008C028091A9029091AA020E94DF02B8015E
:100F40008091A9029091AA020E94C0024091A3023E
:100F500068E48091A9029091AA020E948C0264E147
:100F600070E080E090E00E94EC048091A30288236E
:100F700031F06AE070E080E090E00E94EC04809143
:100F8000A9029091AA020E94DF028091A402D0924D
:100F9000A4028A3008F467CF00E010E08091A70235
:100FA00090E0081719070CF05ECF602FCE010A966B
:100FB0000E94B7049090A402CE010A960E949E035C
:100FC000891518F48091A40204C0CE010A960E94EB
:100FD0009E038093A4020F5F1F4FE0CF84EB91E04C
:100FE0000E94B5048091A9029091AA020E94DF029A
:100FF00040E06CEC8091A9029091AA020E948C02C0
:101000004091A30264E48091A9029091AA020E94F7
:101010008C028091A502882309F449C0E091A402C2
:10102000E950E33040F4F0E0EE0FFF1FEA5FFE4FBF
:101030006081718102C06EEE72E08091A602882309
:1010400081F18091A30281112CC08FB7F894409058
:1010500002025090030260900402709005028FBF5C
:101060004B01770FAA08BB088091A9029091AA02B0
:101070000E9439028130D9F02FB7F8948091020292
:1010800090910302A0910402B09105022FBF88192C
:101090009909AA09BB0984159505A605B70520F38A
:1010A00006C0072E000C880B990B0E94EC048FECF5
:1010B00091E00E94680400E010E0E12CF12C8091A6
:1010C000000290910102E816F9060CF00DC1A09003
:1010D000FE01B090FF01A00EB11E84ED91E00E94D0
:1010E000B504C5010E94A2018CEE91E00E94B504F6
:1010F000BE016F5F7F4FC5010E943B03882369F1EA
:101100002A8130E0C901982F8827990F990F990FEC
:10111000698148E0649FB00111249C01262B372B84
:10112000F50180818031E1F4688570E08F81AB0149
:10113000481B5109CA019695982F8827979587953E
:101140000E94250A60517109207F53E0220F331F4E
:101150005A95E1F7620F731F04C060E874EE01C096
:10116000B901613854EE75077CF0072E000C880B2E
:10117000990B0E94180B20E030E040E05CE30E94F5
:10118000CD0B4B015C0106C0812C912C8EEFA82E5B
:1011900082ECB82E85EE91E00E94B504A501940181
:1011A000C501B4010E943A0C882319F08EEE91E03B
:1011B0001AC024013501E89477F82FEF3FEF4FE78D
:1011C0005FE7C301B2010E943A0C81110FC02FEFFB
:1011D0003FEF4FE75FE7C301B2010E94E20A181632
:1011E0002CF482EF91E00E94520476C02FEF3FEF83
:1011F0004FE75FE4C501B4010E94C80B18161CF448
:1012000086EF91E0F0CF2FEF3FEF4FE75FECC501A6
:10121000B4010E94E20A87FDF3CF20E030E0A9018B
:10122000C501B4010E94E20A87FF09C06DE286E0B1
:1012300092E00E942901B7FAB094B7F8B0942AE07E
:1012400037ED43EA5BE3C501B4010E94760A2B0146
:101250003C010E94E70A4B015C010E94160B9B01B6
:10126000AC01C301B2010E94750A2B013C014AE0A6
:10127000C501B4010E9474046EE286E092E00E940F
:10128000290120E030E040E251E4C301B2010E94B4
:10129000CD0B2B013C010E94E70A4B01A12CB12C84
:1012A0004AE0C501B4010E947404C501B4010E9462
:1012B000160B9B01AC01C301B2010E94750A20E02C
:1012C00030E040E251E40E94CD0B0E94E70A80E04A
:1012D00090E04AE00E9474040E9464048FEFE81AD0
:1012E000F80A085F1F4FEBCE68EE73E080E090E0F5
:1012F0000E94EC040E94980113CD1093A302E3CC4A
:101300008091A8028F5F8093A8029ECCCF93DF9339
:10131000109209021092080288EE93E0A0E0B0E07B
:1013200080930A0290930B02A0930C02B0930D02DB
:1013300080E191E0909307028093060285EC90E0B3
:10134000909313028093120284EC90E09093150224
:101350008093140280EC90E0909317028093160221
:1013600081EC90E0909319028093180282EC90E057
:1013700090931B0280931A0286EC90E090931D02DA
:1013800080931C0210921F021092200210922102E0
:1013900010922202EDEBF0E02491E9EAF0E0849172
:1013A0008823C1F090E0880F991FFC01EE56FF4F93
:1013B000C591D491FC01E857FF4FA591B4919FB717
:1013C000F8948881E22FE0958E2388838C91E8231E
:1013D000EC939FBFEDEBF0E0E491E093BC02E9EA0F
:1013E000F0E0E491F0E0EE0FFF1FE456FF4F85912F
:1013F00094919093BE028093BD021092C702109206
:10140000C9021092C802E7ECF2E0129282E0EF3BD0
:10141000F807D9F78CEB92E09093AA028093A90287
:101420001092A7021092A8021092A30289E0809362
:10143000A40281E08093A5028093A6021092B602D6
:101440001092B502DF91CF91089597FB072E16F405
:10145000009407D077FD09D00E945B0A07FC05D0F5
:101460003EF4909581959F4F0895709561957F4FBB
:101470000895A1E21A2EAA1BBB1BFD010DC0AA1FD5
:10148000BB1FEE1FFF1FA217B307E407F50720F0ED
:10149000A21BB30BE40BF50B661F771F881F991F68
:1014A0001A9469F760957095809590959B01AC01B1
:1014B000BD01CF010895AA1BBB1B51E107C0AA1FA4
:1014C000BB1FA617B70710F0A61BB70B881F991FE5
:1014D0005A95A9F780959095BC01CD010895EE0F1E
:1014E000FF1F0590F491E02D09945058BB27AA27BF
:1014F0000E948D0A0C948E0B0E94800B38F00E9483
:10150000870B20F039F49F3F19F426F40C947D0BDF
:101510000EF4E095E7FB0C94770BE92F0E949F0BEC
:1015200058F3BA17620773078407950720F079F418
:10153000A6F50C94C10B0EF4E0950B2EBA2FA02D3E
:101540000B01B90190010C01CA01A0011124FF2770
:10155000591B99F0593F50F4503E68F11A16F0406B
:10156000A22F232F342F4427585FF3CF469537956A
:101570002795A795F0405395C9F77EF41F16BA0B2F
:10158000620B730B840BBAF09150A1F0FF0FBB1FDD
:10159000661F771F881FC2F70EC0BA0F621F731F26
:1015A000841F48F4879577956795B795F7959E3F83
:1015B00008F0B0CF9395880F08F09927EE0F979514
:1015C000879508950E94530B08F481E008950E94C6
:1015D000A70B88F09F5798F0B92F9927B751B0F013
:1015E000E1F0660F771F881F991F1AF0BA95C9F7A7
:1015F00014C0B13091F00E94C10BB1E008950C9479
:10160000C10B672F782F8827B85F39F0B93FCCF32B
:10161000869577956795B395D9F73EF49095809523
:10162000709561957F4F8F4F9F4F0895E89409C043
:1016300097FB3EF490958095709561957F4F8F4F05
:101640009F4F9923A9F0F92F96E9BB279395F6951B
:10165000879577956795B795F111F8CFFAF4BB0F99
:1016600011F460FF1BC06F5F7F4F8F4F9F4F16C0FD
:10167000882311F096E911C0772321F09EE8872F87
:10168000762F05C0662371F096E8862F70E060E043
:101690002AF09A95660F771F881FDAF7880F9695BC
:1016A000879597F90895990F0008550FAA0BE0E860
:1016B000FEEF16161706E807F907C0F01216130614
:1016C000E407F50798F0621B730B840B950B39F454
:1016D0000A2661F0232B242B252B21F408950A26BA
:1016E00009F4A140A6958FEF811D811D089597F9FA
:1016F0009F6780E870E060E008959FEF80EC0895B8
:1017000000240A94161617061806090608950024E0
:101710000A9412161306140605060895092E03945A
:10172000000C11F4882352F0BB0F40F4BF2B11F4CE
:1017300060FF04C06F5F7F4F8F4F9F4F089557FD2D
:101740009058440F551F59F05F3F71F04795880F2F
:1017500097FB991F61F09F3F79F0879508951216C6
:1017600013061406551FF2CF4695F1DF08C0161672
:1017700017061806991FF1CF869571056105089423
:101780000895E894BB2766277727CB0197F908953A
:101790000E94530B08F48FEF08950E94E00B0C9405
:1017A0008E0B0E94800B38F00E94870B20F095234F
:1017B00011F00C94770B0C947D0B11240C94C20B3C
:1017C0000E949F0B70F3959FC1F3950F50E0551F3A
:1017D000629FF001729FBB27F00DB11D639FAA2786
:1017E000F00DB11DAA1F649F6627B00DA11D661FD5
:1017F000829F2227B00DA11D621F739FB00DA11DF6
:10180000621F839FA00D611D221F749F3327A00DAF
:10181000611D231F849F600D211D822F762F6A2F4B
:1018200011249F5750409AF0F1F088234AF0EE0FB0
:10183000FF1FBB1F661F771F881F91505040A9F7DD
:101840009E3F510580F00C94770B0C94C20B5F3FC8
:10185000E4F3983ED4F3869577956795B795F79519
:10186000E7959F5FC1F7FE2B880F911D9695879591
:1018700097F908950E94530B880B990B08950F93C5
:101880001F93CF93DF938230910510F482E090E0B4
:10189000E091CC02F091CD0220E030E0A0E0B0E099
:1018A000309719F1408151810281138148175907FE
:1018B000C8F08417950769F4109731F012960C93CD
:1018C000129713961C9327C00093CC021093CD025D
:1018D00022C02115310519F04217530718F49A0157
:1018E000BD01EF01DF01F801DBCF21153105F9F072
:1018F000281B390B2430310580F48A819B816115C6
:10190000710521F0FB019383828304C09093CD0283
:101910008093CC02FE01329644C0FE01E20FF31F19
:101920008193919322503109398328833AC02091C1
:10193000CA023091CB02232B41F420910201309155
:1019400003013093CB022093CA0220910001309111
:1019500001012115310541F42DB73EB74091040135
:1019600050910501241B350BE091CA02F091CB0286
:10197000E217F307A0F42E1B3F0B2817390778F066
:10198000AC014E5F5F4F2417350748F04E0F5F1FC5
:101990005093CB024093CA028193919302C0E0E03E
:1019A000F0E0CF01DF91CF911F910F910895CF9378
:1019B000DF93009709F481C0FC01329713821282F1
:1019C000A091CC02B091CD02109781F42081318199
:1019D000820F931F2091CA023091CB02281739073A
:1019E00051F5F093CB02E093CA0267C0ED0120E00D
:1019F00030E0CE17DF0740F44A815B819E0141153C
:101A00005105F1F0EA01F5CFD383C28340815181C2
:101A1000840F951FC817D90759F488819981840FBD
:101A2000951F0296918380838A819B819383828311
:101A30002115310529F4F093CD02E093CC023DC08D
:101A4000E901FB83EA8349915991C40FD51FEC1733
:101A5000FD0761F480819181840F951F0296E90151
:101A600099838883828193819B838A83E0E0F0E07D
:101A700012968D919C911397009719F0FD01DC014E
:101A8000F7CF8D919C9111979D012E5F3F4F820F53
:101A9000931F2091CA023091CB022817390769F4AD
:101AA000309729F41092CD021092CC0202C013821A
:101AB0001282B093CB02A093CA02DF91CF91089516
:0E1AC00081E090E0F8940C94650DF894FFCF4F
:101ACE000000CE0220005E00BC0077010000000086
:101ADE0029019200C0007601F100CF00E3004461BD
:101AEE006C6C61732054656D70657261747572658E
:101AFE0020494320436F6E74726F6C204C69627282
:101B0E006172792044656D6F004465766963652066
:101B1E00636F756E74206368616E6765643A20004A
:101B2E00506172617369746520706F776572206998
:101B3E00733A20004F4E004F464600556E61626C60
:101B4E006520746F2066696E6420616464726573CB
:101B5E007320666F72204465766963652030004499
:101B6E00657669636520005265736F6C7574696F75
:101B7E006E3A200052657175657374696E672074D4
:101B8E00656D7065726174757265732E2E2E0044CC
:101B9E004F4E450044657669636520416464726505
:101BAE0073733A200054656D7020433A20006E61C5
:0E1BBE006E00696E66006F7666000D0A00000C
:00000001FF
