:100000000C9468000C9490000C9490000C94900058
:100010000C9490000C9490000C9490000C94900020
:100020000C9490000C9490000C9490000C94900010
:100030000C9490000C9490000C9490000C94900000
:100040000C94D4050C9490000C9444060C941E0659
:100050000C9490000C9490000C9490000C949000E0
:100060000C9490000C949000005EBCE2613FDD8334
:10007000C29C7E20A3FD1F41009D23BE46DB65F888
:100080008C11AF32CA57E974000000002500280027
:100090002B0000000000240027002A0000000000C0
:1000A00023002600290004040404040404040202BA
:1000B00002020202030303030303010204081020E7
:1000C0004080010204081020010204081020760676
:1000D00011241FBECFEFD8E0DEBFCDBF11E0A0E0FE
:1000E000B1E0E8E5F9E102C005900D92AA33B1074D
:1000F000D9F721E0AAE3B1E001C01D92A83FB20701
:10010000E1F710E0C8E6D0E004C02197FE010E94AC
:100110004209C736D107C9F70E941E070C94AA0CE2
:100120000C9400003FB7F89480913F0190914001FA
:10013000A0914101B091420126B5A89B05C02F3F77
:1001400019F00196A11DB11D3FBFBA2FA92F982FFD
:100150008827820F911DA11DB11DBC01CD0142E078
:10016000660F771F881F991F4A95D1F708958F92C0
:100170009F92AF92BF92CF92DF92EF92FF926B016C
:100180007C010E9492004B015C01C114D104E10486
:10019000F104F1F00E949200DC01CB018819990969
:1001A000AA09BB09883E9340A105B10570F321E07F
:1001B000C21AD108E108F10888EE880E83E0981E83
:1001C000A11CB11CC114D104E104F10419F7DDCF65
:1001D000FF90EF90DF90CF90BF90AF909F908F9067
:1001E0000895CF92DF92EF92FF920F931F93CF93D8
:1001F000DF936C017A018B01C0E0D0E0CE15DF0502
:1002000081F0D8016D918D01D601ED91FC910190A5
:10021000F081E02DC6010995892B11F02196EECFD2
:100220007E01C701DF91CF911F910F91FF90EF9059
:10023000DF90CF900895089580E090E00895FC014C
:10024000538D448D252F30E0842F90E0821B930B3B
:10025000541710F0CF96089501970895FC01918DE1
:10026000828D981761F0828DDF01A80FB11D5D9618
:100270008C91928D9F5F9F73928F90E008958FEF86
:100280009FEF0895FC01918D828D981731F0828D3A
:10029000E80FF11D858D90E008958FEF9FEF089591
:1002A000FC01918D228D892F90E0805C9F4F821BF5
:1002B00091098F739927089583E491E00E9450017A
:1002C00021E0892B09F420E0822F0895FC01848D20
:1002D000DF01A80FB11DA35ABF4F2C91848D90E070
:1002E00001968F739927848FA689B7892C93A0894B
:1002F000B1898C91837080648C93938D848D9813D5
:1003000006C00288F389E02D80818F7D8083089567
:10031000EF92FF920F931F93CF93DF93EC0181E055
:10032000888F9B8D8C8D981305C0E889F989808111
:1003300085FD26C0F62E0B8D10E00F5F1F4F0F734B
:100340001127E02E8C8DE8120CC00FB607FCFACFF7
:10035000E889F989808185FFF5CFCE010E94660189
:10036000F1CF8B8DFE01E80FF11DE35AFF4FF082B4
:100370009FB7F8940B8FEA89FB89808180620AC05D
:100380009FB7F894EE89FF896083E889F9898081B5
:100390008370806480839FBF81E090E0DF91CF9184
:1003A0001F910F91FF90EF900895CF93DF93EC0191
:1003B000888D8823C9F0EA89FB89808185FD05C085
:1003C000A889B9898C9186FD0FC00FB607FCF5CFBF
:1003D000808185FFF2CFA889B9898C9185FFEDCF07
:1003E000CE010E946601E7CFDF91CF91089580E0B2
:1003F00090E0892B29F00E945C0181110C9400008F
:100400000895DC0180E0615098F02D91982F92279B
:10041000E92FEF70F0E0E859FF4F249192959F701B
:10042000E92FF0E0E858FF4FE491822F8E27EBCFC1
:100430000895FC0190810180F281E02DF894818182
:10044000892B81832281892F809528232283A7E00D
:10045000B0E01197F1F7218182238183A3E2B0E01C
:100460001197F1F780817894EFECF0E03197F1F794
:10047000982381E009F480E00895FC0190810180D7
:10048000F281E02D892F809560FF12C0F8942281BF
:10049000822382838181892B8183A3E2B0E011973B
:1004A000F1F78281982B9283789487ED90E011C0C8
:1004B000F8942281822382838181892B8183AFEF0B
:1004C000B0E01197F1F78281982B928378948FE0B6
:1004D00090E00197F1F70895DF92EF92FF920F936A
:1004E0001F93CF93DF93EC01D62EE42E08E010E0AB
:1004F000FF24F39461E08D2D8F2109F460E0CE019B
:100500000E943D02FF0C01501109A1F7E11010C03B
:10051000F894E981FA81918188818095892381838A
:10052000E981FA81928188818095892382837894F8
:10053000DF91CF911F910F91FF90EF90DF90089581
:10054000EF92FF920F931F93CF93DF938C017B0168
:1005500040E065E50E946C02E70188E0E80EF11CCE
:10056000699140E0C8010E946C02CE15DF05C1F719
:10057000DF91CF911F910F91FF90EF900895DC01D3
:100580002C911196ED91FC911297F8948181922F04
:1005900090958923818378948DE743E050E08150E2
:1005A00021F1DA011197F1F730813223C1F3F89488
:1005B0008281892382838181822B81837894ABE736
:1005C000B7E01197F1F7F89481819823918383E143
:1005D00091E00197F1F78081282381E009F080E024
:1005E0007894E3E6F6E03197F1F70895AF92BF9281
:1005F000CF92DF92EF92FF920F931F93CF93DF93EF
:100600008B01BC018091E6019091E7010E94A0025C
:1006100040E06EEB8091E6019091E7010E946C0250
:10062000E801680189E0C80ED11CA090E601B090F5
:10063000E70188E0E82EF12C10E001E0C5010E94FE
:1006400019028111102B000F81E0E81AF108B1F7AF
:100650001993CC16DD0649F78091E6019091E701E8
:100660000E94BF0291E0813009F090E0892FDF9174
:10067000CF911F910F91FF90EF90DF90CF90BF909F
:10068000AF9008950F931F93CF93DF93CDB7DEB74D
:1006900029970FB6F894DEBF0FBECDBF8C018091B5
:1006A000E6019091E7010E94BF02882309F43FC050
:1006B000BE016F5F7F4FC8010E94F6028823B9F127
:1006C00068E0CE0101960E940102998589132FC02E
:1006D0002A8130E0A901542F4427550F550F550F9B
:1006E000898128E0829FC00111249A01282B392B8F
:1006F000F80180818031C9F4688570E08F81AB0199
:10070000481B5109CA019695982F88279795879578
:100710000E94F808CB014097207F53E0220F331F3F
:100720005A95E1F7820F931F04C0C90102C080E807
:1007300094EE29960FB6F894DEBF0FBECDBFDF91C1
:10074000CF911F910F9108950F931F93CF93DF9334
:10075000CDB7DEB729970FB6F894DEBF0FBECDBF79
:100760008C018091E6019091E7010E94BF028823ED
:1007700009F1BE016F5F7F4FC8010E94F602882316
:10078000C9F068E0CE0101960E94010299858913A3
:1007900011C08D818F3361F020F48F3159F489E0DD
:1007A0000CC08F3519F08F3739F004C08BE005C0CD
:1007B0008AE003C080E001C08CE029960FB6F8946F
:1007C000DEBF0FBECDBFDF91CF911F910F91089576
:1007D000BF92CF92DF92EF92FF920F931F93CF932E
:1007E000DF93EC016B018D85811105C0CE010E9464
:1007F000BF02811105C01B861D861C8680E060C07B
:1008000040E060EFCE010E946C0201E0E12CB12CCF
:1008100011E0CE010E941902F82ECE010E941902A9
:1008200091E0F91203C08130B1F434C02E2D30E0D4
:10083000F8121BC08B85181738F4FE01E20FF31F66
:100840008381802341F402C0811729F0F12C1930F3
:1008500058F41C8709C0FE01EE0DF11D8381802B29
:100860008383FF24F39409C0B12EFE01E20FF31F2E
:100870009381802F8095892383836F2DCE010E94E1
:100880003D021F5F000F11F4E39401E087E08E1535
:1008900008F0BFCF113408F4AECFBB86B11002C050
:1008A00081E08D878B81882309F4A5CFDE01139623
:1008B000F6012B968D918193CA17DB07D9F781E05A
:1008C000DF91CF911F910F91FF90EF90DF90CF902C
:1008D000BF900895FF920F931F93CF93DF938C01E6
:1008E000F62EE091E601F091E70113861586148655
:1008F000DF011B9633961E92EA17FB07E1F7C0E073
:10090000B8018091E6019091E7010E94E803D82F99
:10091000882369F0FC1208C067E0C8010E94010248
:10092000F8019781891721F0CF5FFC1648F7D0E0D6
:100930008D2FDF91CF911F910F91FF900895009718
:1009400069F0FC0101900020E9F73197AF01481BE5
:10095000590BBC0183E491E00C94F10080E090E03D
:1009600008952F923F924F925F926F927F928F9253
:100970009F92AF92BF92CF92DF92EF92FF920F932E
:100980001F93CF93DF93CDB7DEB7A4970FB6F8943C
:10099000DEBF0FBECDBF4B015C01F42E9B01AC014D
:1009A0000E947F0B882319F08EE191E027C024017B
:1009B0003501E89477F82FEF3FEF4FE75FE7C3018A
:1009C000B2010E947F0B81110DC02FEF3FEF4FE767
:1009D0005FE7C301B2010E94B50918161CF482E258
:1009E00091E00CC02FEF3FEF4FE75FE4C501B4018A
:1009F0000E940D0B18162CF486E291E00E949F04D1
:100A0000B8C02FEF3FEF4FE75FECC501B4010E9484
:100A1000B50987FDF1CF20E030E0A901C501B4019F
:100A20000E94B50987FF0BC06DE283E491E00E944C
:100A300088013C01B7FAB094B7F8B09402C0612CB9
:100A4000712C10E060E070E080E09FE3F11641F06F
:100A500020E030E040E251E40E94BA091F5FF6CF87
:100A6000A50194010E9449094B015C010E942C0AD6
:100A70006AA3C72ED82EE92E19A2262F372F482F6A
:100A8000592F8E010F5D1F4F0BA31CA39AE0292E37
:100A9000312C412C512CCA01B901A20191010E94B3
:100AA0000C09605DF80162938F0121153105410544
:100AB000510589F7CF010E949F048301080F191F78
:100AC000FF2009F455C06AA17C2D8D2D9E2D0E941A
:100AD0005B0A9B01AC01C501B4010E9448094B01AE
:100AE0005C016EE283E491E00E948801080F191F07
:100AF0008AE0282E312C412C512C20E030E040E2BD
:100B000051E4C501B4010E94120B4B015C010E942B
:100B10002C0A9B0140E050E019A2CBA0DCA0762E6D
:100B20003AA3642EE52ECA01B901A20191010E94E7
:100B30000C09605DF60162936F01211531054105D5
:100B4000510589F7CF010E949F04080F191F672DD7
:100B50007AA1862D9E2D0E945B0A9B01AC01C501E6
:100B6000B4010E9448094B015C01FA94F110C5CF11
:100B7000C801A4960FB6F894DEBF0FBECDBFDF91BB
:100B8000CF911F910F91FF90EF90DF90CF90BF908A
:100B9000AF909F908F907F906F905F904F903F901D
:100BA0002F9008950E94A50C1F920F920FB60F92DE
:100BB00011242F933F938F939F93AF93BF93809173
:100BC0003B0190913C01A0913D01B0913E013091DB
:100BD0003A0123E0230F2D3720F40196A11DB11D0A
:100BE00005C026E8230F0296A11DB11D20933A01EE
:100BF00080933B0190933C01A0933D01B0933E0153
:100C000080913F0190914001A0914101B09142013A
:100C10000196A11DB11D80933F0190934001A093C7
:100C20004101B0934201BF91AF919F918F913F914C
:100C30002F910F900FBE0F901F9018951F920F923B
:100C40000FB60F9211242F933F934F935F936F939F
:100C50007F938F939F93AF93BF93EF93FF9383E41F
:100C600091E00E946601FF91EF91BF91AF919F913A
:100C70008F917F916F915F914F913F912F910F9045
:100C80000FBE0F901F9018951F920F920FB60F92E4
:100C900011242F938F939F93EF93FF93E091530130
:100CA000F09154018081E0915901F0915A0182FD47
:100CB00012C0908180915C018F5F8F7320915D01E4
:100CC000821751F0E0915C01F0E0ED5BFE4F958FF3
:100CD00080935C0101C08081FF91EF919F918F9182
:100CE0002F910F900FBE0F901F901895CF93DF9309
:100CF000109246011092450188EE93E0A0E0B0E02A
:100D00008093470190934801A0934901B0934A0111
:100D100080E191E0909344018093430185EC90E061
:100D20009093500180934F0184EC90E09093520196
:100D30008093510180EC90E0909354018093530193
:100D400081EC90E0909356018093550182EC90E005
:100D5000909358018093570186EC90E090935A014C
:100D60008093590110925C0110925D0110925E0116
:100D700010925F018EE090E00E94840BDC01EDEBAD
:100D8000F0E08491E9EAF0E024912223D9F030E008
:100D9000220F331FF901EE56FF4F45915491F9018F
:100DA000E857FF4FC591D4912FB7F894FA0190817D
:100DB000382F3095892F832380838881E32FE82380
:100DC000E8832FBFEDEBF0E0E491EC93E9EAF0E08B
:100DD000E491F0E0EE0FFF1FE456FF4F85919491F0
:100DE00012969C938E9311971B961C921B971D969F
:100DF0001C921D971C961C921C97FD013B96CD01E1
:100E000003961292E817F907E1F7B093E701A09370
:100E1000E6011092E4011092E5011092E00189E0F0
:100E20008093E10181E08093E2018093E3011092DD
:100E3000F3011092F201DF91CF910895CF93DF93E8
:100E4000CDB7DEB728970FB6F894DEBF0FBECDBF83
:100E5000789484B5826084BD84B5816084BD85B595
:100E6000826085BD85B5816085BD80916E008160A1
:100E700080936E0010928100809181008260809347
:100E80008100809181008160809381008091800049
:100E90008160809380008091B10084608093B10074
:100EA0008091B00081608093B00080917A0084606E
:100EB00080937A0080917A00826080937A0080919A
:100EC0007A00816080937A0080917A0080688093B4
:100ED0007A001092C100E0915301F091540182E038
:100EE0008083E0914F01F09150011082E091510117
:100EF000F09152018FEC808310925B01E0915701D9
:100F0000F091580186E08083E0915501F0915601FF
:100F1000808180618083E0915501F091560180814C
:100F200088608083E0915501F0915601808180684E
:100F30008083E0915501F091560180818F7D8083FF
:100F4000E091E601F091E701138615861486DF0132
:100F50001B9633961E92AE17BF07E1F71092E4017D
:100F60001092E50101E0BE016F5F7F4F8091E601C5
:100F70009091E7010E94E803882309F4C3C067E069
:100F8000CE0101960E94010298858913ECCF8091D1
:100F9000E001811127C08091E6019091E7010E9454
:100FA000BF02BE016F5F7F4F8091E6019091E70124
:100FB0000E94A00240E064EB8091E6019091E7017D
:100FC0000E946C028091E6019091E7010E94190253
:100FD000182F8091E6019091E7010E94BF02112332
:100FE00009F4F9C01091E1018981803109F4FCC054
:100FF000CE0101960E94A403811718F48091E101AB
:1010000009C08981803111F48CE004C0CE010196C1
:101010000E94A4038093E1018091E4018F5F80939B
:10102000E4018981883209F4D9C038F4803109F4A7
:10103000D5C0823209F097CFD1C08B3309F4CEC02E
:10104000823409F090CFCAC0E091E101E950E33069
:1010500008F075C0F0E0EE0FFF1FEA5FFE4F608101
:1010600071818091E301882309F482C08091E001BD
:1010700081117EC08FB7F89480903B0190903C0125
:10108000A0903D01B0903E018FBF6B01770FEE083D
:10109000FF088091E6019091E7010E9419028130DA
:1010A00009F050C08AE291E00E949F0460E0CE0106
:1010B00001960E946A04811162C060E070E08EEFC8
:1010C00092EC42E00E94B10480E391E00E949F0410
:1010D00061E0CE0101960E946A04811166C060E061
:1010E00070E08EEF92EC42E00E94B10486E391E062
:1010F0000E949F0468EE73E080E090E00E94B700D9
:101100000E94F7018091E6019091E7010E94BF02E1
:1011100040E06CEC8091E6019091E7010E946C0246
:101120004091E00164E48091E6019091E7010E9422
:101130006C028091E201882309F4B4CF85CF6EEE72
:1011400072E08FCF2FB7F89480913B0190913C01D2
:10115000A0913D01B0913E012FBF8C199D09AE09B0
:10116000BF0988159905AA05BB0508F492CF9ACF47
:10117000072E000C880B990B0E94B70093CFCE016D
:1011800001960E944203813824EE92070CF495CF19
:10119000BC01990F880B990B0E945D0A20E030E09A
:1011A00040E05CE30E94120B8CCFCE0101960E94BE
:1011B0004203813824EE92070CF491CFBC01990FC1
:1011C000880B990B0E945D0A20E030E040E05CE370
:1011D0000E94120B88CF0093E00104CF8091E501BB
:1011E0008F5F8093E501BFCE1D3008F007CF0CCF95
:1011F00097FB072E16F4009407D077FD09D00E94C4
:101200002E0907FC05D03EF4909581959F4F0895D7
:10121000709561957F4F0895A1E21A2EAA1BBB1B02
:10122000FD010DC0AA1FBB1FEE1FFF1FA217B307B2
:10123000E407F50720F0A21BB30BE40BF50B661FC8
:10124000771F881F991F1A9469F76095709580958C
:1012500090959B01AC01BD01CF010895AA1BBB1B5A
:1012600051E107C0AA1FBB1FA617B70710F0A61BA6
:10127000B70B881F991F5A95A9F780959095BC01C7
:10128000CD010895EE0FFF1F0590F491E02D099414
:101290005058BB27AA270E9460090C94D30A0E94C9
:1012A000C50A38F00E94CC0A20F039F49F3F19F4A7
:1012B00026F40C94C20A0EF4E095E7FB0C94BC0AE9
:1012C000E92F0E94E40A58F3BA17620773078407EC
:1012D000950720F079F4A6F50C94060B0EF4E09532
:1012E0000B2EBA2FA02D0B01B90190010C01CA01E0
:1012F000A0011124FF27591B99F0593F50F4503E8B
:1013000068F11A16F040A22F232F342F4427585F7C
:10131000F3CF469537952795A795F0405395C9F794
:101320007EF41F16BA0B620B730B840BBAF091504C
:10133000A1F0FF0FBB1F661F771F881FC2F70EC0EB
:10134000BA0F621F731F841F48F4879577956795BE
:10135000B795F7959E3F08F0B0CF9395880F08F0AA
:101360009927EE0F9795879508950E94980A08F49B
:1013700081E008950E94CE090C94D30A0E94CC0A01
:1013800058F00E94C50A40F029F45F3F29F00C9400
:10139000BC0A51110C94070B0C94C20A0E94E40A77
:1013A00068F39923B1F3552391F3951B550BBB2794
:1013B000AA2762177307840738F09F5F5F4F220FD9
:1013C000331F441FAA1FA9F335D00E2E3AF0E0E8D0
:1013D00032D091505040E695001CCAF72BD0FE2F1A
:1013E00029D0660F771F881FBB1F261737074807AE
:1013F000AB07B0E809F0BB0B802DBF01FF27935866
:101400005F4F3AF09E3F510578F00C94BC0A0C9463
:10141000070B5F3FE4F3983ED4F386957795679585
:10142000B795F7959F5FC9F7880F911D969587959A
:1014300097F90895E1E0660F771F881FBB1F6217B9
:1014400073078407BA0720F0621B730B840BBA0B77
:10145000EE1F88F7E09508950E94EC0A88F09F57E8
:1014600098F0B92F9927B751B0F0E1F0660F771FC8
:10147000881F991F1AF0BA95C9F714C0B13091F0BE
:101480000E94060BB1E008950C94060B672F782F8D
:101490008827B85F39F0B93FCCF386957795679583
:1014A000B395D9F73EF490958095709561957F4FEF
:1014B0008F4F9F4F0895E89409C097FB3EF4909595
:1014C0008095709561957F4F8F4F9F4F9923A9F01D
:1014D000F92F96E9BB279395F695879577956795AC
:1014E000B795F111F8CFFAF4BB0F11F460FF1BC0F0
:1014F0006F5F7F4F8F4F9F4F16C0882311F096E983
:1015000011C0772321F09EE8872F762F05C0662330
:1015100071F096E8862F70E060E02AF09A95660FE9
:10152000771F881FDAF7880F9695879597F90895A2
:10153000990F0008550FAA0BE0E8FEEF16161706E4
:10154000E807F907C0F012161306E407F50798F04C
:10155000621B730B840B950B39F40A2661F0232B65
:10156000242B252B21F408950A2609F4A140A695E1
:101570008FEF811D811D089597F99F6780E870E0C6
:1015800060E008959FEF80EC089500240A941616F9
:10159000170618060906089500240A941216130661
:1015A000140605060895092E0394000C11F48823EF
:1015B00052F0BB0F40F4BF2B11F460FF04C06F5F0B
:1015C0007F4F8F4F9F4F089557FD9058440F551FE1
:1015D00059F05F3F71F04795880F97FB991F61F0B5
:1015E0009F3F79F087950895121613061406551F2C
:1015F000F2CF4695F1DF08C0161617061806991F98
:10160000F1CF86957105610508940895E894BB278C
:1016100066277727CB0197F908950E94980A08F466
:101620008FEF08950E94250B0C94D30A0E94C50ADF
:1016300038F00E94CC0A20F0952311F00C94BC0ADB
:101640000C94C20A11240C94070B0E94E40A70F354
:10165000959FC1F3950F50E0551F629FF001729F57
:10166000BB27F00DB11D639FAA27F00DB11DAA1F66
:10167000649F6627B00DA11D661F829F2227B00DB3
:10168000A11D621F739FB00DA11D621F839FA00D3E
:10169000611D221F749F3327A00D611D231F849F8E
:1016A000600D211D822F762F6A2F11249F575040E5
:1016B0009AF0F1F088234AF0EE0FFF1FBB1F661F60
:1016C000771F881F91505040A9F79E3F510580F029
:1016D0000C94BC0A0C94070B5F3FE4F3983ED4F3E0
:1016E000869577956795B795F795E7959F5FC1F7CD
:1016F000FE2B880F911D9695879597F908950E9466
:10170000980A880B990B08950F931F93CF93DF933B
:101710008230910510F482E090E0E091F601F091C2
:10172000F70120E030E0A0E0B0E0309719F140810F
:1017300051810281138148175907C8F08417950712
:1017400069F4109731F012960C93129713961C932C
:1017500027C00093F6011093F70122C0211531052F
:1017600019F04217530718F49A01BD01EF01DF0188
:10177000F801DBCF21153105F9F0281B390B243096
:10178000310580F48A819B816115710521F0FB018F
:101790009383828304C09093F7018093F601FE0146
:1017A000329644C0FE01E20FF31F819391932250C1
:1017B0003109398328833AC02091F4013091F50131
:1017C000232B41F420910201309103013093F50164
:1017D0002093F40120910001309101012115310580
:1017E00041F42DB73EB74091040150910501241BEF
:1017F000350BE091F401F091F501E217F307A0F445
:101800002E1B3F0B2817390778F0AC014E5F5F4F56
:101810002417350748F04E0F5F1F5093F501409392
:10182000F4018193919302C0E0E0F0E0CF01DF91F9
:10183000CF911F910F910895CF93DF93009709F4F3
:1018400081C0FC01329713821282A091F601B091FF
:10185000F701109781F420813181820F931F20912D
:10186000F4013091F5012817390751F5F093F5018E
:10187000E093F40167C0ED0120E030E0CE17DF0710
:1018800040F44A815B819E0141155105F1F0EA0166
:10189000F5CFD383C28340815181840F951FC81730
:1018A000D90759F488819981840F951F02969183F5
:1018B00080838A819B81938382832115310529F45A
:1018C000F093F701E093F6013DC0E901FB83EA8361
:1018D00049915991C40FD51FEC17FD0761F4808120
:1018E0009181840F951F0296E901998388838281F3
:1018F00093819B838A83E0E0F0E012968D919C9126
:101900001397009719F0FD01DC01F7CF8D919C91A1
:1019100011979D012E5F3F4F820F931F2091F4017D
:101920003091F5012817390769F4309729F410929E
:10193000F7011092F60102C013821282B093F501F2
:10194000A093F401DF91CF91089581E090E0F894A5
:081950000C94AA0CF894FFCFDF
:101958000000F80120005E00BC00770100000000D4
:101968008801F1001F01D50150012E0142016E616D
:101978006E00696E66006F7666002074303A20004B
:0A1988002074313A20000D0A00001F
:00000001FF
